:1000000015C0BBC088C057C0B8C0B7C0B6C0B5C067
:10001000B4C0B3C0B2C0B1C0B0C0AFC0AEC0ADC05C
:10002000ACC00060006180006100628011241FBECE
:10003000CFE5D2E0DEBFCDBFE2E2F0E040E017C0A6
:10004000B591A59135912591059107FD0CC095912C
:100050008591EF01F92FE82F05900D92A217B307B4
:10006000D9F7FE0104C01D92A217B307E1F7EC32E5
:0C007000F40731F703D000C0F894FFCF74
:10007C0068D087EC90E00197F1F700C000006DD0DC
:10008C00809161008F3F31F41092610043E060E099
:10009C0080E04AD0809160008F3F89F71092600019
:0A00AC0040E063E080E040D0EACFBE
:1000B6001F920F920FB60F9211248F93F8948DE52D
:1000C6008A95F1F70000B09903C08FEF8093610025
:1000D600B19903C08FEF8093600078948F910F9051
:0800E6000FBE0F901F9018954A
:1000EE0028E030E0882334F4C29A000000000000BB
:1000FE00C29805C0C29A0000C29800000000880F86
:08010E002150310979F7089531
:100116001F920F920FB60F9211248F93F89489B302
:0E01260078948F910F900FBE0F901F90189538
:10013400CF93DF93D82F862FC42FD7DF8D2FD5DF12
:0A0144008C2FD3DFDF91CF910895D7
:10014E0084E087BB93E098BB80E38BBF90BD95EABC
:08015E0092BB85BF789408955F
:1001660080916000811104C080916100882309F0AC
:0401760088950895CB
:02017A0042CF72
:00000001FF
