:1000000010C04CC04BC04AC049C048C047C046C0E1
:1000100045C044C043C042C041C040C03FC03EC0D4
:100020003DC011241FBECFE5D2E0DEBFCDBF03D05F
:0600300000C0F894FFCFB0
:1000360084E087BB88BB1ED01DD01CD01BD01AD035
:1000460019D018D017D016D015D014D013D012D07E
:1000560011D010D00FD00ED00DD00CD00BD00AD0AE
:1000660012D011D010D088E190E00197F1F780E02E
:0400760090E0089579
:10007A00C29A00000000C2980000000000000000C0
:02008A000895D7
:10008C00C29A00000000000000000000C298089511
:02009C00B1CFE2
:00000001FF
